{
  "contractName": "MPresto",
  "abi": [
    {
      "constant": true,
      "inputs": [
        {
          "name": "",
          "type": "uint256"
        }
      ],
      "name": "itemToOwner",
      "outputs": [
        {
          "name": "",
          "type": "address"
        }
      ],
      "payable": false,
      "stateMutability": "view",
      "type": "function"
    },
    {
      "constant": true,
      "inputs": [
        {
          "name": "",
          "type": "address"
        }
      ],
      "name": "ownerNickname",
      "outputs": [
        {
          "name": "",
          "type": "bytes32"
        }
      ],
      "payable": false,
      "stateMutability": "view",
      "type": "function"
    },
    {
      "constant": true,
      "inputs": [
        {
          "name": "",
          "type": "uint256"
        }
      ],
      "name": "items",
      "outputs": [
        {
          "name": "name",
          "type": "string"
        },
        {
          "name": "quantity",
          "type": "uint256"
        }
      ],
      "payable": false,
      "stateMutability": "view",
      "type": "function"
    },
    {
      "constant": true,
      "inputs": [
        {
          "name": "",
          "type": "bytes32"
        }
      ],
      "name": "nicknames",
      "outputs": [
        {
          "name": "",
          "type": "address"
        }
      ],
      "payable": false,
      "stateMutability": "view",
      "type": "function"
    },
    {
      "anonymous": false,
      "inputs": [
        {
          "indexed": false,
          "name": "id",
          "type": "uint256"
        },
        {
          "indexed": false,
          "name": "name",
          "type": "string"
        },
        {
          "indexed": false,
          "name": "quantity",
          "type": "uint256"
        }
      ],
      "name": "NewItem",
      "type": "event"
    },
    {
      "anonymous": false,
      "inputs": [
        {
          "indexed": true,
          "name": "_from",
          "type": "address"
        },
        {
          "indexed": true,
          "name": "_to",
          "type": "address"
        },
        {
          "indexed": false,
          "name": "_tokenId",
          "type": "uint256"
        }
      ],
      "name": "Transfer",
      "type": "event"
    },
    {
      "anonymous": false,
      "inputs": [
        {
          "indexed": false,
          "name": "_from",
          "type": "bytes32"
        },
        {
          "indexed": false,
          "name": "_to",
          "type": "bytes32"
        },
        {
          "indexed": true,
          "name": "_owner",
          "type": "address"
        }
      ],
      "name": "ChangeNickname",
      "type": "event"
    },
    {
      "constant": false,
      "inputs": [
        {
          "name": "_name",
          "type": "string"
        },
        {
          "name": "_quantity",
          "type": "uint256"
        }
      ],
      "name": "createItem",
      "outputs": [],
      "payable": false,
      "stateMutability": "nonpayable",
      "type": "function"
    },
    {
      "constant": true,
      "inputs": [
        {
          "name": "_itemId",
          "type": "uint256"
        }
      ],
      "name": "getItem",
      "outputs": [
        {
          "name": "",
          "type": "string"
        },
        {
          "name": "",
          "type": "uint256"
        },
        {
          "name": "",
          "type": "address"
        },
        {
          "name": "",
          "type": "bytes32"
        }
      ],
      "payable": false,
      "stateMutability": "view",
      "type": "function"
    },
    {
      "constant": true,
      "inputs": [
        {
          "name": "_owner",
          "type": "address"
        }
      ],
      "name": "getItemsByOwner",
      "outputs": [
        {
          "name": "",
          "type": "uint256[]"
        }
      ],
      "payable": false,
      "stateMutability": "view",
      "type": "function"
    },
    {
      "constant": false,
      "inputs": [
        {
          "name": "_to",
          "type": "address"
        },
        {
          "name": "_itemId",
          "type": "uint256"
        }
      ],
      "name": "transfer",
      "outputs": [],
      "payable": false,
      "stateMutability": "nonpayable",
      "type": "function"
    },
    {
      "constant": false,
      "inputs": [
        {
          "name": "_nickname",
          "type": "bytes32"
        }
      ],
      "name": "setNickname",
      "outputs": [],
      "payable": false,
      "stateMutability": "nonpayable",
      "type": "function"
    }
  ],
  "bytecode": "0x608060405234801561001057600080fd5b50611060806100206000396000f300608060405260043610610099576000357c0100000000000000000000000000000000000000000000000000000000900463ffffffff1680631a4d96cd1461009e5780631ae8ab811461010b5780632c67a8e51461013c5780633129e773146101d45780635e8c1537146102c35780638c55174214610322578063a9059cbb14610395578063bfb231d2146103e2578063dde723391461048f575b600080fd5b3480156100aa57600080fd5b506100c960048036038101908080359060200190929190505050610500565b604051808273ffffffffffffffffffffffffffffffffffffffff1673ffffffffffffffffffffffffffffffffffffffff16815260200191505060405180910390f35b34801561011757600080fd5b5061013a6004803603810190808035600019169060200190929190505050610533565b005b34801561014857600080fd5b5061017d600480360381019080803573ffffffffffffffffffffffffffffffffffffffff16906020019092919050505061073d565b6040518080602001828103825283818151815260200191508051906020019060200280838360005b838110156101c05780820151818401526020810190506101a5565b505050509050019250505060405180910390f35b3480156101e057600080fd5b506101ff6004803603810190808035906020019092919050505061086e565b60405180806020018581526020018473ffffffffffffffffffffffffffffffffffffffff1673ffffffffffffffffffffffffffffffffffffffff1681526020018360001916600019168152602001828103825286818151815260200191508051906020019080838360005b8381101561028557808201518184015260208101905061026a565b50505050905090810190601f1680156102b25780820380516001836020036101000a031916815260200191505b509550505050505060405180910390f35b3480156102cf57600080fd5b50610304600480360381019080803573ffffffffffffffffffffffffffffffffffffffff1690602001909291905050506109c8565b60405180826000191660001916815260200191505060405180910390f35b34801561032e57600080fd5b50610393600480360381019080803590602001908201803590602001908080601f0160208091040260200160405190810160405280939291908181526020018383808284378201915050505050509192919290803590602001909291905050506109e0565b005b3480156103a157600080fd5b506103e0600480360381019080803573ffffffffffffffffffffffffffffffffffffffff16906020019092919080359060200190929190505050610ba3565b005b3480156103ee57600080fd5b5061040d60048036038101908080359060200190929190505050610e5c565b6040518080602001838152602001828103825284818151815260200191508051906020019080838360005b83811015610453578082015181840152602081019050610438565b50505050905090810190601f1680156104805780820380516001836020036101000a031916815260200191505b50935050505060405180910390f35b34801561049b57600080fd5b506104be6004803603810190808035600019169060200190929190505050610f27565b604051808273ffffffffffffffffffffffffffffffffffffffff1673ffffffffffffffffffffffffffffffffffffffff16815260200191505060405180910390f35b60006020528060005260406000206000915054906101000a900473ffffffffffffffffffffffffffffffffffffffff1681565b60008060036000846000191660001916815260200190815260200160002060009054906101000a900473ffffffffffffffffffffffffffffffffffffffff1673ffffffffffffffffffffffffffffffffffffffff1614151561059457600080fd5b600460003373ffffffffffffffffffffffffffffffffffffffff1673ffffffffffffffffffffffffffffffffffffffff1681526020019081526020016000205490503360036000846000191660001916815260200190815260200160002060006101000a81548173ffffffffffffffffffffffffffffffffffffffff021916908373ffffffffffffffffffffffffffffffffffffffff160217905550600060036000836000191660001916815260200190815260200160002060006101000a81548173ffffffffffffffffffffffffffffffffffffffff021916908373ffffffffffffffffffffffffffffffffffffffff16021790555081600460003373ffffffffffffffffffffffffffffffffffffffff1673ffffffffffffffffffffffffffffffffffffffff16815260200190815260200160002081600019169055503373ffffffffffffffffffffffffffffffffffffffff167f1ac9d6d2e6ab14b660733284792dcac548fc420b3d2e43e569d580abdc620717828460405180836000191660001916815260200182600019166000191681526020019250505060405180910390a25050565b606080600080600160008673ffffffffffffffffffffffffffffffffffffffff1673ffffffffffffffffffffffffffffffffffffffff168152602001908152602001600020546040519080825280602002602001820160405280156107b15781602001602082028038833980820191505090505b50925060009150600090505b600280549050811015610863578473ffffffffffffffffffffffffffffffffffffffff1660008083815260200190815260200160002060009054906101000a900473ffffffffffffffffffffffffffffffffffffffff1673ffffffffffffffffffffffffffffffffffffffff1614156108565780838381518110151561083f57fe5b906020019060200201818152505081806001019250505b80806001019150506107bd565b829350505050919050565b606060008060008060008060028881548110151561088857fe5b9060005260206000209060020201925060008089815260200190815260200160002060009054906101000a900473ffffffffffffffffffffffffffffffffffffffff169150600460008373ffffffffffffffffffffffffffffffffffffffff1673ffffffffffffffffffffffffffffffffffffffff1681526020019081526020016000205490508260000183600101548383838054600181600116156101000203166002900480601f0160208091040260200160405190810160405280929190818152602001828054600181600116156101000203166002900480156109af5780601f10610984576101008083540402835291602001916109af565b820191906000526020600020905b81548152906001019060200180831161099257829003601f168201915b5050505050935096509650965096505050509193509193565b60046020528060005260406000206000915090505481565b600060016002604080519081016040528086815260200185815250908060018154018082558091505090600182039060005260206000209060020201600090919290919091506000820151816000019080519060200190610a42929190610f8f565b506020820151816001015550500390503360008083815260200190815260200160002060006101000a81548173ffffffffffffffffffffffffffffffffffffffff021916908373ffffffffffffffffffffffffffffffffffffffff160217905550600160003373ffffffffffffffffffffffffffffffffffffffff1673ffffffffffffffffffffffffffffffffffffffff168152602001908152602001600020600081548092919060010191905055507f9a002a8ebb688272831a54812b526f68fb713ec35eaff99938f528229d91433a8184846040518084815260200180602001838152602001828103825284818151815260200191508051906020019080838360005b83811015610b62578082015181840152602081019050610b47565b50505050905090810190601f168015610b8f5780820380516001836020036101000a031916815260200191505b5094505050505060405180910390a1505050565b3373ffffffffffffffffffffffffffffffffffffffff1660008083815260200190815260200160002060009054906101000a900473ffffffffffffffffffffffffffffffffffffffff1673ffffffffffffffffffffffffffffffffffffffff16141515610c78576040517f08c379a00000000000000000000000000000000000000000000000000000000081526004018080602001828103825260048152602001807f44656e790000000000000000000000000000000000000000000000000000000081525060200191505060405180910390fd5b610cca60018060008573ffffffffffffffffffffffffffffffffffffffff1673ffffffffffffffffffffffffffffffffffffffff16815260200190815260200160002054610f5a90919063ffffffff16565b600160008473ffffffffffffffffffffffffffffffffffffffff1673ffffffffffffffffffffffffffffffffffffffff16815260200190815260200160002081905550610d5f60018060003373ffffffffffffffffffffffffffffffffffffffff1673ffffffffffffffffffffffffffffffffffffffff16815260200190815260200160002054610f7690919063ffffffff16565b600160003373ffffffffffffffffffffffffffffffffffffffff1673ffffffffffffffffffffffffffffffffffffffff168152602001908152602001600020819055508160008083815260200190815260200160002060006101000a81548173ffffffffffffffffffffffffffffffffffffffff021916908373ffffffffffffffffffffffffffffffffffffffff1602179055508173ffffffffffffffffffffffffffffffffffffffff163373ffffffffffffffffffffffffffffffffffffffff167fddf252ad1be2c89b69c2b068fc378daa952ba7f163c4a11628f55a4df523b3ef836040518082815260200191505060405180910390a35050565b600281815481101515610e6b57fe5b9060005260206000209060020201600091509050806000018054600181600116156101000203166002900480601f016020809104026020016040519081016040528092919081815260200182805460018160011615610100020316600290048015610f175780601f10610eec57610100808354040283529160200191610f17565b820191906000526020600020905b815481529060010190602001808311610efa57829003601f168201915b5050505050908060010154905082565b60036020528060005260406000206000915054906101000a900473ffffffffffffffffffffffffffffffffffffffff1681565b60008183019050828110151515610f6d57fe5b80905092915050565b6000828211151515610f8457fe5b818303905092915050565b828054600181600116156101000203166002900490600052602060002090601f016020900481019282601f10610fd057805160ff1916838001178555610ffe565b82800160010185558215610ffe579182015b82811115610ffd578251825591602001919060010190610fe2565b5b50905061100b919061100f565b5090565b61103191905b8082111561102d576000816000905550600101611015565b5090565b905600a165627a7a72305820e9dddd15c2adf5a6bb4239bc1eaab2d97ff9d493cb84791022199a88b1afb5150029",
  "source": "pragma solidity ^0.4.4;\nimport \"openzeppelin-solidity/contracts/math/SafeMath.sol\";\n\ncontract MPresto {\n  using SafeMath for uint256;\n\n  struct Item {\n    string name;\n    uint quantity;\n  }\n\n  mapping(uint => address) public itemToOwner;\n  mapping(address => uint) ownerItemCount;\n\n  Item[] public items;\n\n  mapping(bytes32 => address) public nicknames;\n  mapping(address => bytes32) public ownerNickname;\n\n  function createItem(string _name, uint _quantity) public {\n    uint id = items.push(Item(_name, _quantity)) - 1;\n    itemToOwner[id] = msg.sender;\n    ownerItemCount[msg.sender]++;\n    emit NewItem(id, _name, _quantity);\n  }\n\n  function getItem(uint _itemId) public view returns (string, uint, address, bytes32) {\n    Item storage item = items[_itemId];\n    address owner = itemToOwner[_itemId];\n    bytes32 nickname = ownerNickname[owner];\n    return (item.name, item.quantity, owner, nickname);\n  }\n\n  function getItemsByOwner(address _owner) public view returns (uint[]) {\n    uint[] memory result = new uint[](ownerItemCount[_owner]);\n    uint counter = 0;\n    for (uint i = 0; i < items.length; i++) {\n      if (itemToOwner[i] == _owner) {\n        result[counter] = i;\n        counter++;\n      }\n    }\n\n    return result;\n  }\n\n  function transfer(address _to, uint _itemId) public {\n    require(itemToOwner[_itemId] == msg.sender, 'Deny');\n    ownerItemCount[_to] = ownerItemCount[_to].add(1);\n    ownerItemCount[msg.sender] = ownerItemCount[msg.sender].sub(1);\n    itemToOwner[_itemId] = _to;\n    emit Transfer(msg.sender, _to, _itemId);\n  }\n\n  function setNickname(bytes32 _nickname) public {\n    require(nicknames[_nickname] == 0x0);\n    bytes32 current = ownerNickname[msg.sender];\n    nicknames[_nickname] = msg.sender;\n    nicknames[current] = 0x0;\n    ownerNickname[msg.sender] = _nickname;\n    emit ChangeNickname(current, _nickname, msg.sender);\n  }\n\n  event NewItem(uint id, string name, uint quantity);\n  event Transfer(address indexed _from, address indexed _to, uint256 _tokenId);\n  event ChangeNickname(bytes32 _from, bytes32 _to, address indexed _owner);\n}\n",
  "sourcePath": "/home/ocio/workspace/public/m-presto/m-presto-contracts/contracts/MPresto.sol",
  "compiler": {
    "name": "solc",
    "version": "0.4.24+commit.e67f0147.Emscripten.clang"
  },
  "schemaVersion": "2.0.1",
  "updatedAt": "2018-07-26T19:03:51.670Z"
}