{
  "contractName": "MPresto",
  "abi": [
    {
      "constant": true,
      "inputs": [
        {
          "name": "",
          "type": "uint256"
        }
      ],
      "name": "itemToOwner",
      "outputs": [
        {
          "name": "",
          "type": "address"
        }
      ],
      "payable": false,
      "stateMutability": "view",
      "type": "function"
    },
    {
      "constant": true,
      "inputs": [
        {
          "name": "",
          "type": "uint256"
        }
      ],
      "name": "items",
      "outputs": [
        {
          "name": "name",
          "type": "string"
        },
        {
          "name": "quantity",
          "type": "uint256"
        }
      ],
      "payable": false,
      "stateMutability": "view",
      "type": "function"
    },
    {
      "anonymous": false,
      "inputs": [
        {
          "indexed": false,
          "name": "id",
          "type": "uint256"
        },
        {
          "indexed": false,
          "name": "name",
          "type": "string"
        },
        {
          "indexed": false,
          "name": "quantity",
          "type": "uint256"
        }
      ],
      "name": "NewItem",
      "type": "event"
    },
    {
      "anonymous": false,
      "inputs": [
        {
          "indexed": true,
          "name": "_from",
          "type": "address"
        },
        {
          "indexed": true,
          "name": "_to",
          "type": "address"
        },
        {
          "indexed": false,
          "name": "_tokenId",
          "type": "uint256"
        }
      ],
      "name": "Transfer",
      "type": "event"
    },
    {
      "constant": false,
      "inputs": [
        {
          "name": "_name",
          "type": "string"
        },
        {
          "name": "_quantity",
          "type": "uint256"
        }
      ],
      "name": "createItem",
      "outputs": [],
      "payable": false,
      "stateMutability": "nonpayable",
      "type": "function"
    },
    {
      "constant": true,
      "inputs": [
        {
          "name": "_owner",
          "type": "address"
        }
      ],
      "name": "getItemsByOwner",
      "outputs": [
        {
          "name": "",
          "type": "uint256[]"
        }
      ],
      "payable": false,
      "stateMutability": "view",
      "type": "function"
    },
    {
      "constant": false,
      "inputs": [
        {
          "name": "_to",
          "type": "address"
        },
        {
          "name": "_itemId",
          "type": "uint256"
        }
      ],
      "name": "transfer",
      "outputs": [],
      "payable": false,
      "stateMutability": "nonpayable",
      "type": "function"
    }
  ],
  "bytecode": "0x608060405234801561001057600080fd5b50610a95806100206000396000f30060806040526004361061006d576000357c0100000000000000000000000000000000000000000000000000000000900463ffffffff1680631a4d96cd146100725780632c67a8e5146100df5780638c55174214610177578063a9059cbb146101ea578063bfb231d214610237575b600080fd5b34801561007e57600080fd5b5061009d600480360381019080803590602001909291905050506102e4565b604051808273ffffffffffffffffffffffffffffffffffffffff1673ffffffffffffffffffffffffffffffffffffffff16815260200191505060405180910390f35b3480156100eb57600080fd5b50610120600480360381019080803573ffffffffffffffffffffffffffffffffffffffff169060200190929190505050610317565b6040518080602001828103825283818151815260200191508051906020019060200280838360005b83811015610163578082015181840152602081019050610148565b505050509050019250505060405180910390f35b34801561018357600080fd5b506101e8600480360381019080803590602001908201803590602001908080601f016020809104026020016040519081016040528093929190818152602001838380828437820191505050505050919291929080359060200190929190505050610448565b005b3480156101f657600080fd5b50610235600480360381019080803573ffffffffffffffffffffffffffffffffffffffff1690602001909291908035906020019092919050505061060b565b005b34801561024357600080fd5b50610262600480360381019080803590602001909291905050506108c4565b6040518080602001838152602001828103825284818151815260200191508051906020019080838360005b838110156102a857808201518184015260208101905061028d565b50505050905090810190601f1680156102d55780820380516001836020036101000a031916815260200191505b50935050505060405180910390f35b60006020528060005260406000206000915054906101000a900473ffffffffffffffffffffffffffffffffffffffff1681565b606080600080600160008673ffffffffffffffffffffffffffffffffffffffff1673ffffffffffffffffffffffffffffffffffffffff1681526020019081526020016000205460405190808252806020026020018201604052801561038b5781602001602082028038833980820191505090505b50925060009150600090505b60028054905081101561043d578473ffffffffffffffffffffffffffffffffffffffff1660008083815260200190815260200160002060009054906101000a900473ffffffffffffffffffffffffffffffffffffffff1673ffffffffffffffffffffffffffffffffffffffff1614156104305780838381518110151561041957fe5b906020019060200201818152505081806001019250505b8080600101915050610397565b829350505050919050565b6000600160026040805190810160405280868152602001858152509080600181540180825580915050906001820390600052602060002090600202016000909192909190915060008201518160000190805190602001906104aa9291906109c4565b506020820151816001015550500390503360008083815260200190815260200160002060006101000a81548173ffffffffffffffffffffffffffffffffffffffff021916908373ffffffffffffffffffffffffffffffffffffffff160217905550600160003373ffffffffffffffffffffffffffffffffffffffff1673ffffffffffffffffffffffffffffffffffffffff168152602001908152602001600020600081548092919060010191905055507f9a002a8ebb688272831a54812b526f68fb713ec35eaff99938f528229d91433a8184846040518084815260200180602001838152602001828103825284818151815260200191508051906020019080838360005b838110156105ca5780820151818401526020810190506105af565b50505050905090810190601f1680156105f75780820380516001836020036101000a031916815260200191505b5094505050505060405180910390a1505050565b3373ffffffffffffffffffffffffffffffffffffffff1660008083815260200190815260200160002060009054906101000a900473ffffffffffffffffffffffffffffffffffffffff1673ffffffffffffffffffffffffffffffffffffffff161415156106e0576040517f08c379a00000000000000000000000000000000000000000000000000000000081526004018080602001828103825260048152602001807f44656e790000000000000000000000000000000000000000000000000000000081525060200191505060405180910390fd5b61073260018060008573ffffffffffffffffffffffffffffffffffffffff1673ffffffffffffffffffffffffffffffffffffffff1681526020019081526020016000205461098f90919063ffffffff16565b600160008473ffffffffffffffffffffffffffffffffffffffff1673ffffffffffffffffffffffffffffffffffffffff168152602001908152602001600020819055506107c760018060003373ffffffffffffffffffffffffffffffffffffffff1673ffffffffffffffffffffffffffffffffffffffff168152602001908152602001600020546109ab90919063ffffffff16565b600160003373ffffffffffffffffffffffffffffffffffffffff1673ffffffffffffffffffffffffffffffffffffffff168152602001908152602001600020819055508160008083815260200190815260200160002060006101000a81548173ffffffffffffffffffffffffffffffffffffffff021916908373ffffffffffffffffffffffffffffffffffffffff1602179055508173ffffffffffffffffffffffffffffffffffffffff163373ffffffffffffffffffffffffffffffffffffffff167fddf252ad1be2c89b69c2b068fc378daa952ba7f163c4a11628f55a4df523b3ef836040518082815260200191505060405180910390a35050565b6002818154811015156108d357fe5b9060005260206000209060020201600091509050806000018054600181600116156101000203166002900480601f01602080910402602001604051908101604052809291908181526020018280546001816001161561010002031660029004801561097f5780601f106109545761010080835404028352916020019161097f565b820191906000526020600020905b81548152906001019060200180831161096257829003601f168201915b5050505050908060010154905082565b600081830190508281101515156109a257fe5b80905092915050565b60008282111515156109b957fe5b818303905092915050565b828054600181600116156101000203166002900490600052602060002090601f016020900481019282601f10610a0557805160ff1916838001178555610a33565b82800160010185558215610a33579182015b82811115610a32578251825591602001919060010190610a17565b5b509050610a409190610a44565b5090565b610a6691905b80821115610a62576000816000905550600101610a4a565b5090565b905600a165627a7a72305820f7bf7cf026e972d20235dfd82917965f9432212a188a3c8398fbf7f834d13d6b0029",
  "source": "pragma solidity ^0.4.4;\nimport \"openzeppelin-solidity/contracts/math/SafeMath.sol\";\n\ncontract MPresto {\n  using SafeMath for uint256;\n\n  struct Item {\n    string name;\n    uint quantity;\n  }\n\n  mapping(uint => address) public itemToOwner;\n  mapping(address => uint) ownerItemCount;\n\n  Item[] public items;\n\n  function createItem(string _name, uint _quantity) public {\n    uint id = items.push(Item(_name, _quantity)) - 1;\n    itemToOwner[id] = msg.sender;\n    ownerItemCount[msg.sender]++;\n    emit NewItem(id, _name, _quantity);\n  }\n\n  function getItemsByOwner(address _owner) public view returns (uint[]) {\n    uint[] memory result = new uint[](ownerItemCount[_owner]);\n    uint counter = 0;\n    for (uint i = 0; i < items.length; i++) {\n      if (itemToOwner[i] == _owner) {\n        result[counter] = i;\n        counter++;\n      }\n    }\n\n    return result;\n  }\n\n  function transfer(address _to, uint _itemId) public {\n    require(itemToOwner[_itemId] == msg.sender, 'Deny');\n    ownerItemCount[_to] = ownerItemCount[_to].add(1);\n    ownerItemCount[msg.sender] = ownerItemCount[msg.sender].sub(1);\n    itemToOwner[_itemId] = _to;\n    emit Transfer(msg.sender, _to, _itemId);\n  }\n\n  event NewItem(uint id, string name, uint quantity);\n  event Transfer(address indexed _from, address indexed _to, uint256 _tokenId);\n}\n",
  "sourcePath": "/home/ocio/workspace/public/m-presto/m-presto-contracts/contracts/MPresto.sol",
  "compiler": {
    "name": "solc",
    "version": "0.4.24+commit.e67f0147.Emscripten.clang"
  },
  "schemaVersion": "2.0.1",
  "updatedAt": "2018-07-25T16:23:04.589Z"
}