{
  "contractName": "MPresto",
  "abi": [
    {
      "constant": true,
      "inputs": [
        {
          "name": "interfaceId",
          "type": "bytes4"
        }
      ],
      "name": "supportsInterface",
      "outputs": [
        {
          "name": "",
          "type": "bool"
        }
      ],
      "payable": false,
      "stateMutability": "view",
      "type": "function"
    },
    {
      "constant": true,
      "inputs": [],
      "name": "name",
      "outputs": [
        {
          "name": "",
          "type": "string"
        }
      ],
      "payable": false,
      "stateMutability": "view",
      "type": "function"
    },
    {
      "constant": true,
      "inputs": [
        {
          "name": "tokenId",
          "type": "uint256"
        }
      ],
      "name": "getApproved",
      "outputs": [
        {
          "name": "",
          "type": "address"
        }
      ],
      "payable": false,
      "stateMutability": "view",
      "type": "function"
    },
    {
      "constant": false,
      "inputs": [
        {
          "name": "to",
          "type": "address"
        },
        {
          "name": "tokenId",
          "type": "uint256"
        }
      ],
      "name": "approve",
      "outputs": [],
      "payable": false,
      "stateMutability": "nonpayable",
      "type": "function"
    },
    {
      "constant": true,
      "inputs": [],
      "name": "totalSupply",
      "outputs": [
        {
          "name": "",
          "type": "uint256"
        }
      ],
      "payable": false,
      "stateMutability": "view",
      "type": "function"
    },
    {
      "constant": false,
      "inputs": [
        {
          "name": "from",
          "type": "address"
        },
        {
          "name": "to",
          "type": "address"
        },
        {
          "name": "tokenId",
          "type": "uint256"
        }
      ],
      "name": "transferFrom",
      "outputs": [],
      "payable": false,
      "stateMutability": "nonpayable",
      "type": "function"
    },
    {
      "constant": true,
      "inputs": [
        {
          "name": "owner",
          "type": "address"
        },
        {
          "name": "index",
          "type": "uint256"
        }
      ],
      "name": "tokenOfOwnerByIndex",
      "outputs": [
        {
          "name": "",
          "type": "uint256"
        }
      ],
      "payable": false,
      "stateMutability": "view",
      "type": "function"
    },
    {
      "constant": false,
      "inputs": [
        {
          "name": "from",
          "type": "address"
        },
        {
          "name": "to",
          "type": "address"
        },
        {
          "name": "tokenId",
          "type": "uint256"
        }
      ],
      "name": "safeTransferFrom",
      "outputs": [],
      "payable": false,
      "stateMutability": "nonpayable",
      "type": "function"
    },
    {
      "constant": true,
      "inputs": [
        {
          "name": "index",
          "type": "uint256"
        }
      ],
      "name": "tokenByIndex",
      "outputs": [
        {
          "name": "",
          "type": "uint256"
        }
      ],
      "payable": false,
      "stateMutability": "view",
      "type": "function"
    },
    {
      "constant": true,
      "inputs": [
        {
          "name": "",
          "type": "address"
        }
      ],
      "name": "ownerNickname",
      "outputs": [
        {
          "name": "",
          "type": "bytes32"
        }
      ],
      "payable": false,
      "stateMutability": "view",
      "type": "function"
    },
    {
      "constant": true,
      "inputs": [
        {
          "name": "tokenId",
          "type": "uint256"
        }
      ],
      "name": "ownerOf",
      "outputs": [
        {
          "name": "",
          "type": "address"
        }
      ],
      "payable": false,
      "stateMutability": "view",
      "type": "function"
    },
    {
      "constant": true,
      "inputs": [
        {
          "name": "owner",
          "type": "address"
        }
      ],
      "name": "balanceOf",
      "outputs": [
        {
          "name": "",
          "type": "uint256"
        }
      ],
      "payable": false,
      "stateMutability": "view",
      "type": "function"
    },
    {
      "constant": true,
      "inputs": [],
      "name": "symbol",
      "outputs": [
        {
          "name": "",
          "type": "string"
        }
      ],
      "payable": false,
      "stateMutability": "view",
      "type": "function"
    },
    {
      "constant": false,
      "inputs": [
        {
          "name": "to",
          "type": "address"
        },
        {
          "name": "approved",
          "type": "bool"
        }
      ],
      "name": "setApprovalForAll",
      "outputs": [],
      "payable": false,
      "stateMutability": "nonpayable",
      "type": "function"
    },
    {
      "constant": false,
      "inputs": [
        {
          "name": "from",
          "type": "address"
        },
        {
          "name": "to",
          "type": "address"
        },
        {
          "name": "tokenId",
          "type": "uint256"
        },
        {
          "name": "_data",
          "type": "bytes"
        }
      ],
      "name": "safeTransferFrom",
      "outputs": [],
      "payable": false,
      "stateMutability": "nonpayable",
      "type": "function"
    },
    {
      "constant": true,
      "inputs": [
        {
          "name": "",
          "type": "uint256"
        }
      ],
      "name": "items",
      "outputs": [
        {
          "name": "name",
          "type": "string"
        },
        {
          "name": "quantity",
          "type": "uint256"
        }
      ],
      "payable": false,
      "stateMutability": "view",
      "type": "function"
    },
    {
      "constant": true,
      "inputs": [
        {
          "name": "tokenId",
          "type": "uint256"
        }
      ],
      "name": "tokenURI",
      "outputs": [
        {
          "name": "",
          "type": "string"
        }
      ],
      "payable": false,
      "stateMutability": "view",
      "type": "function"
    },
    {
      "constant": true,
      "inputs": [
        {
          "name": "",
          "type": "bytes32"
        }
      ],
      "name": "nicknames",
      "outputs": [
        {
          "name": "",
          "type": "address"
        }
      ],
      "payable": false,
      "stateMutability": "view",
      "type": "function"
    },
    {
      "constant": true,
      "inputs": [
        {
          "name": "owner",
          "type": "address"
        },
        {
          "name": "operator",
          "type": "address"
        }
      ],
      "name": "isApprovedForAll",
      "outputs": [
        {
          "name": "",
          "type": "bool"
        }
      ],
      "payable": false,
      "stateMutability": "view",
      "type": "function"
    },
    {
      "inputs": [],
      "payable": false,
      "stateMutability": "nonpayable",
      "type": "constructor"
    },
    {
      "anonymous": false,
      "inputs": [
        {
          "indexed": false,
          "name": "id",
          "type": "uint256"
        },
        {
          "indexed": false,
          "name": "name",
          "type": "string"
        },
        {
          "indexed": false,
          "name": "quantity",
          "type": "uint256"
        }
      ],
      "name": "NewItem",
      "type": "event"
    },
    {
      "anonymous": false,
      "inputs": [
        {
          "indexed": false,
          "name": "_from",
          "type": "bytes32"
        },
        {
          "indexed": false,
          "name": "_to",
          "type": "bytes32"
        },
        {
          "indexed": true,
          "name": "_owner",
          "type": "address"
        }
      ],
      "name": "ChangeNickname",
      "type": "event"
    },
    {
      "anonymous": false,
      "inputs": [
        {
          "indexed": true,
          "name": "from",
          "type": "address"
        },
        {
          "indexed": true,
          "name": "to",
          "type": "address"
        },
        {
          "indexed": true,
          "name": "tokenId",
          "type": "uint256"
        }
      ],
      "name": "Transfer",
      "type": "event"
    },
    {
      "anonymous": false,
      "inputs": [
        {
          "indexed": true,
          "name": "owner",
          "type": "address"
        },
        {
          "indexed": true,
          "name": "approved",
          "type": "address"
        },
        {
          "indexed": true,
          "name": "tokenId",
          "type": "uint256"
        }
      ],
      "name": "Approval",
      "type": "event"
    },
    {
      "anonymous": false,
      "inputs": [
        {
          "indexed": true,
          "name": "owner",
          "type": "address"
        },
        {
          "indexed": true,
          "name": "operator",
          "type": "address"
        },
        {
          "indexed": false,
          "name": "approved",
          "type": "bool"
        }
      ],
      "name": "ApprovalForAll",
      "type": "event"
    },
    {
      "constant": false,
      "inputs": [
        {
          "name": "_name",
          "type": "string"
        },
        {
          "name": "_quantity",
          "type": "uint256"
        }
      ],
      "name": "createItem",
      "outputs": [],
      "payable": false,
      "stateMutability": "nonpayable",
      "type": "function"
    },
    {
      "constant": true,
      "inputs": [
        {
          "name": "_id",
          "type": "uint256"
        }
      ],
      "name": "getItem",
      "outputs": [
        {
          "name": "",
          "type": "string"
        },
        {
          "name": "",
          "type": "uint256"
        },
        {
          "name": "",
          "type": "address"
        },
        {
          "name": "",
          "type": "bytes32"
        }
      ],
      "payable": false,
      "stateMutability": "view",
      "type": "function"
    },
    {
      "constant": true,
      "inputs": [
        {
          "name": "_owner",
          "type": "address"
        }
      ],
      "name": "getItemsByOwner",
      "outputs": [
        {
          "name": "",
          "type": "uint256[]"
        }
      ],
      "payable": false,
      "stateMutability": "view",
      "type": "function"
    },
    {
      "constant": false,
      "inputs": [
        {
          "name": "_to",
          "type": "address"
        },
        {
          "name": "_id",
          "type": "uint256"
        }
      ],
      "name": "transfer",
      "outputs": [],
      "payable": false,
      "stateMutability": "nonpayable",
      "type": "function"
    },
    {
      "constant": false,
      "inputs": [
        {
          "name": "_nickname",
          "type": "bytes32"
        }
      ],
      "name": "setNickname",
      "outputs": [],
      "payable": false,
      "stateMutability": "nonpayable",
      "type": "function"
    }
  ],
  "bytecode": "0x60806040523480156200001157600080fd5b506040805190810160405280600781526020017f4d50726573746f000000000000000000000000000000000000000000000000008152506040805190810160405280600481526020017f4d50544f000000000000000000000000000000000000000000000000000000008152508181620000bd6301ffc9a77c010000000000000000000000000000000000000000000000000000000002620001b0640100000000026401000000009004565b620000fa6380ac58cd7c010000000000000000000000000000000000000000000000000000000002620001b0640100000000026401000000009004565b6200013763780e9d637c010000000000000000000000000000000000000000000000000000000002620001b0640100000000026401000000009004565b81600990805190602001906200014f9291906200026e565b5080600a9080519060200190620001689291906200026e565b50620001a6635b5e139f7c010000000000000000000000000000000000000000000000000000000002620001b0640100000000026401000000009004565b505050506200031d565b63ffffffff7c010000000000000000000000000000000000000000000000000000000002817bffffffffffffffffffffffffffffffffffffffffffffffffffffffff1916141515156200020257600080fd5b6001600080837bffffffffffffffffffffffffffffffffffffffffffffffffffffffff19167bffffffffffffffffffffffffffffffffffffffffffffffffffffffff1916815260200190815260200160002060006101000a81548160ff02191690831515021790555050565b828054600181600116156101000203166002900490600052602060002090601f016020900481019282601f10620002b157805160ff1916838001178555620002e2565b82800160010185558215620002e2579182015b82811115620002e1578251825591602001919060010190620002c4565b5b509050620002f19190620002f5565b5090565b6200031a91905b8082111562000316576000816000905550600101620002fc565b5090565b90565b61268a806200032d6000396000f30060806040526004361061013e576000357c0100000000000000000000000000000000000000000000000000000000900463ffffffff16806301ffc9a71461014357806306fdde03146101a7578063081812fc14610237578063095ea7b3146102a457806318160ddd146102f15780631ae8ab811461031c57806323b872dd1461034d5780632c67a8e5146103ba5780632f745c59146104525780633129e773146104b357806342842e0e146105a25780634f6ccce71461060f5780635e8c1537146106505780636352211e146106af57806370a082311461071c5780638c5517421461077357806395d89b41146107e6578063a22cb46514610876578063a9059cbb146108c5578063b88d4fde14610912578063bfb231d2146109c5578063c87b56dd14610a72578063dde7233914610b18578063e985e9c514610b89575b600080fd5b34801561014f57600080fd5b5061018d60048036038101908080357bffffffffffffffffffffffffffffffffffffffffffffffffffffffff19169060200190929190505050610c04565b604051808215151515815260200191505060405180910390f35b3480156101b357600080fd5b506101bc610c6b565b6040518080602001828103825283818151815260200191508051906020019080838360005b838110156101fc5780820151818401526020810190506101e1565b50505050905090810190601f1680156102295780820380516001836020036101000a031916815260200191505b509250505060405180910390f35b34801561024357600080fd5b5061026260048036038101908080359060200190929190505050610d0d565b604051808273ffffffffffffffffffffffffffffffffffffffff1673ffffffffffffffffffffffffffffffffffffffff16815260200191505060405180910390f35b3480156102b057600080fd5b506102ef600480360381019080803573ffffffffffffffffffffffffffffffffffffffff16906020019092919080359060200190929190505050610d5e565b005b3480156102fd57600080fd5b50610306610ea3565b6040518082815260200191505060405180910390f35b34801561032857600080fd5b5061034b6004803603810190808035600019169060200190929190505050610eb0565b005b34801561035957600080fd5b506103b8600480360381019080803573ffffffffffffffffffffffffffffffffffffffff169060200190929190803573ffffffffffffffffffffffffffffffffffffffff169060200190929190803590602001909291905050506110ba565b005b3480156103c657600080fd5b506103fb600480360381019080803573ffffffffffffffffffffffffffffffffffffffff169060200190929190505050611189565b6040518080602001828103825283818151815260200191508051906020019060200280838360005b8381101561043e578082015181840152602081019050610423565b505050509050019250505060405180910390f35b34801561045e57600080fd5b5061049d600480360381019080803573ffffffffffffffffffffffffffffffffffffffff16906020019092919080359060200190929190505050611219565b6040518082815260200191505060405180910390f35b3480156104bf57600080fd5b506104de60048036038101908080359060200190929190505050611290565b60405180806020018581526020018473ffffffffffffffffffffffffffffffffffffffff1673ffffffffffffffffffffffffffffffffffffffff1681526020018360001916600019168152602001828103825286818151815260200191508051906020019080838360005b83811015610564578082015181840152602081019050610549565b50505050905090810190601f1680156105915780820380516001836020036101000a031916815260200191505b509550505050505060405180910390f35b3480156105ae57600080fd5b5061060d600480360381019080803573ffffffffffffffffffffffffffffffffffffffff169060200190929190803573ffffffffffffffffffffffffffffffffffffffff169060200190929190803590602001909291905050506113d3565b005b34801561061b57600080fd5b5061063a600480360381019080803590602001909291905050506113f4565b6040518082815260200191505060405180910390f35b34801561065c57600080fd5b50610691600480360381019080803573ffffffffffffffffffffffffffffffffffffffff16906020019092919050505061142c565b60405180826000191660001916815260200191505060405180910390f35b3480156106bb57600080fd5b506106da60048036038101908080359060200190929190505050611444565b604051808273ffffffffffffffffffffffffffffffffffffffff1673ffffffffffffffffffffffffffffffffffffffff16815260200191505060405180910390f35b34801561072857600080fd5b5061075d600480360381019080803573ffffffffffffffffffffffffffffffffffffffff1690602001909291905050506114c2565b6040518082815260200191505060405180910390f35b34801561077f57600080fd5b506107e4600480360381019080803590602001908201803590602001908080601f016020809104026020016040519081016040528093929190818152602001838380828437820191505050505050919291929080359060200190929190505050611546565b005b3480156107f257600080fd5b506107fb611683565b6040518080602001828103825283818151815260200191508051906020019080838360005b8381101561083b578082015181840152602081019050610820565b50505050905090810190601f1680156108685780820380516001836020036101000a031916815260200191505b509250505060405180910390f35b34801561088257600080fd5b506108c3600480360381019080803573ffffffffffffffffffffffffffffffffffffffff169060200190929190803515159060200190929190505050611725565b005b3480156108d157600080fd5b50610910600480360381019080803573ffffffffffffffffffffffffffffffffffffffff16906020019092919080359060200190929190505050611861565b005b34801561091e57600080fd5b506109c3600480360381019080803573ffffffffffffffffffffffffffffffffffffffff169060200190929190803573ffffffffffffffffffffffffffffffffffffffff16906020019092919080359060200190929190803590602001908201803590602001908080601f0160208091040260200160405190810160405280939291908181526020018383808284378201915050505050509192919290505050611870565b005b3480156109d157600080fd5b506109f060048036038101908080359060200190929190505050611898565b6040518080602001838152602001828103825284818151815260200191508051906020019080838360005b83811015610a36578082015181840152602081019050610a1b565b50505050905090810190601f168015610a635780820380516001836020036101000a031916815260200191505b50935050505060405180910390f35b348015610a7e57600080fd5b50610a9d60048036038101908080359060200190929190505050611963565b6040518080602001828103825283818151815260200191508051906020019080838360005b83811015610add578082015181840152602081019050610ac2565b50505050905090810190601f168015610b0a5780820380516001836020036101000a031916815260200191505b509250505060405180910390f35b348015610b2457600080fd5b50610b476004803603810190808035600019169060200190929190505050611a2c565b604051808273ffffffffffffffffffffffffffffffffffffffff1673ffffffffffffffffffffffffffffffffffffffff16815260200191505060405180910390f35b348015610b9557600080fd5b50610bea600480360381019080803573ffffffffffffffffffffffffffffffffffffffff169060200190929190803573ffffffffffffffffffffffffffffffffffffffff169060200190929190505050611a5f565b604051808215151515815260200191505060405180910390f35b6000806000837bffffffffffffffffffffffffffffffffffffffffffffffffffffffff19167bffffffffffffffffffffffffffffffffffffffffffffffffffffffff1916815260200190815260200160002060009054906101000a900460ff169050919050565b606060098054600181600116156101000203166002900480601f016020809104026020016040519081016040528092919081815260200182805460018160011615610100020316600290048015610d035780601f10610cd857610100808354040283529160200191610d03565b820191906000526020600020905b815481529060010190602001808311610ce657829003601f168201915b5050505050905090565b6000610d1882611af3565b1515610d2357600080fd5b6002600083815260200190815260200160002060009054906101000a900473ffffffffffffffffffffffffffffffffffffffff169050919050565b6000610d6982611444565b90508073ffffffffffffffffffffffffffffffffffffffff168373ffffffffffffffffffffffffffffffffffffffff1614151515610da657600080fd5b8073ffffffffffffffffffffffffffffffffffffffff163373ffffffffffffffffffffffffffffffffffffffff161480610de65750610de58133611a5f565b5b1515610df157600080fd5b826002600084815260200190815260200160002060006101000a81548173ffffffffffffffffffffffffffffffffffffffff021916908373ffffffffffffffffffffffffffffffffffffffff160217905550818373ffffffffffffffffffffffffffffffffffffffff168273ffffffffffffffffffffffffffffffffffffffff167f8c5be1e5ebec7d5bd14f71427d1e84f3dd0314c0f7b2291e5b200ac8c7c3b92560405160405180910390a4505050565b6000600780549050905090565b600080600d6000846000191660001916815260200190815260200160002060009054906101000a900473ffffffffffffffffffffffffffffffffffffffff1673ffffffffffffffffffffffffffffffffffffffff16141515610f1157600080fd5b600e60003373ffffffffffffffffffffffffffffffffffffffff1673ffffffffffffffffffffffffffffffffffffffff16815260200190815260200160002054905033600d6000846000191660001916815260200190815260200160002060006101000a81548173ffffffffffffffffffffffffffffffffffffffff021916908373ffffffffffffffffffffffffffffffffffffffff1602179055506000600d6000836000191660001916815260200190815260200160002060006101000a81548173ffffffffffffffffffffffffffffffffffffffff021916908373ffffffffffffffffffffffffffffffffffffffff16021790555081600e60003373ffffffffffffffffffffffffffffffffffffffff1673ffffffffffffffffffffffffffffffffffffffff16815260200190815260200160002081600019169055503373ffffffffffffffffffffffffffffffffffffffff167f1ac9d6d2e6ab14b660733284792dcac548fc420b3d2e43e569d580abdc620717828460405180836000191660001916815260200182600019166000191681526020019250505060405180910390a25050565b6110c43382611b65565b15156110cf57600080fd5b600073ffffffffffffffffffffffffffffffffffffffff168273ffffffffffffffffffffffffffffffffffffffff161415151561110b57600080fd5b6111158382611bfa565b61111f8382611cfd565b6111298282611eb9565b808273ffffffffffffffffffffffffffffffffffffffff168473ffffffffffffffffffffffffffffffffffffffff167fddf252ad1be2c89b69c2b068fc378daa952ba7f163c4a11628f55a4df523b3ef60405160405180910390a4505050565b606060006060600061119a856114c2565b9250826040519080825280602002602001820160405280156111cb5781602001602082028038833980820191505090505b509150600090505b8281101561120e576111e58582611219565b82828151811015156111f357fe5b906020019060200201818152505080806001019150506111d3565b819350505050919050565b6000611224836114c2565b8210151561123157600080fd5b600560008473ffffffffffffffffffffffffffffffffffffffff1673ffffffffffffffffffffffffffffffffffffffff1681526020019081526020016000208281548110151561127d57fe5b9060005260206000200154905092915050565b6060600080600080600080600c80549050881015156112ae57600080fd5b600c888154811015156112bd57fe5b906000526020600020906002020192506112d688611444565b9150600e60008373ffffffffffffffffffffffffffffffffffffffff1673ffffffffffffffffffffffffffffffffffffffff1681526020019081526020016000205490508260000183600101548383838054600181600116156101000203166002900480601f0160208091040260200160405190810160405280929190818152602001828054600181600116156101000203166002900480156113ba5780601f1061138f576101008083540402835291602001916113ba565b820191906000526020600020905b81548152906001019060200180831161139d57829003601f168201915b5050505050935096509650965096505050509193509193565b6113ef8383836020604051908101604052806000815250611870565b505050565b60006113fe610ea3565b8210151561140b57600080fd5b60078281548110151561141a57fe5b90600052602060002001549050919050565b600e6020528060005260406000206000915090505481565b6000806001600084815260200190815260200160002060009054906101000a900473ffffffffffffffffffffffffffffffffffffffff169050600073ffffffffffffffffffffffffffffffffffffffff168173ffffffffffffffffffffffffffffffffffffffff16141515156114b957600080fd5b80915050919050565b60008073ffffffffffffffffffffffffffffffffffffffff168273ffffffffffffffffffffffffffffffffffffffff16141515156114ff57600080fd5b600360008373ffffffffffffffffffffffffffffffffffffffff1673ffffffffffffffffffffffffffffffffffffffff168152602001908152602001600020549050919050565b60006115c66001600c6040805190810160405280878152602001868152509080600181540180825580915050906001820390600052602060002090600202016000909192909190915060008201518160000190805190602001906115ab92919061258d565b50602082015181600101555050611f9090919063ffffffff16565b90506115d23382611fb1565b7f9a002a8ebb688272831a54812b526f68fb713ec35eaff99938f528229d91433a8184846040518084815260200180602001838152602001828103825284818151815260200191508051906020019080838360005b83811015611642578082015181840152602081019050611627565b50505050905090810190601f16801561166f5780820380516001836020036101000a031916815260200191505b5094505050505060405180910390a1505050565b6060600a8054600181600116156101000203166002900480601f01602080910402602001604051908101604052809291908181526020018280546001816001161561010002031660029004801561171b5780601f106116f05761010080835404028352916020019161171b565b820191906000526020600020905b8154815290600101906020018083116116fe57829003601f168201915b5050505050905090565b3373ffffffffffffffffffffffffffffffffffffffff168273ffffffffffffffffffffffffffffffffffffffff161415151561176057600080fd5b80600460003373ffffffffffffffffffffffffffffffffffffffff1673ffffffffffffffffffffffffffffffffffffffff16815260200190815260200160002060008473ffffffffffffffffffffffffffffffffffffffff1673ffffffffffffffffffffffffffffffffffffffff16815260200190815260200160002060006101000a81548160ff0219169083151502179055508173ffffffffffffffffffffffffffffffffffffffff163373ffffffffffffffffffffffffffffffffffffffff167f17307eab39ab6107e8899845ad3d59bd9653f200f220920489ca2b5937696c3183604051808215151515815260200191505060405180910390a35050565b61186c3383836110ba565b5050565b61187b8484846110ba565b61188784848484612008565b151561189257600080fd5b50505050565b600c818154811015156118a757fe5b9060005260206000209060020201600091509050806000018054600181600116156101000203166002900480601f0160208091040260200160405190810160405280929190818152602001828054600181600116156101000203166002900480156119535780601f1061192857610100808354040283529160200191611953565b820191906000526020600020905b81548152906001019060200180831161193657829003601f168201915b5050505050908060010154905082565b606061196e82611af3565b151561197957600080fd5b600b60008381526020019081526020016000208054600181600116156101000203166002900480601f016020809104026020016040519081016040528092919081815260200182805460018160011615610100020316600290048015611a205780601f106119f557610100808354040283529160200191611a20565b820191906000526020600020905b815481529060010190602001808311611a0357829003601f168201915b50505050509050919050565b600d6020528060005260406000206000915054906101000a900473ffffffffffffffffffffffffffffffffffffffff1681565b6000600460008473ffffffffffffffffffffffffffffffffffffffff1673ffffffffffffffffffffffffffffffffffffffff16815260200190815260200160002060008373ffffffffffffffffffffffffffffffffffffffff1673ffffffffffffffffffffffffffffffffffffffff16815260200190815260200160002060009054906101000a900460ff16905092915050565b6000806001600084815260200190815260200160002060009054906101000a900473ffffffffffffffffffffffffffffffffffffffff169050600073ffffffffffffffffffffffffffffffffffffffff168173ffffffffffffffffffffffffffffffffffffffff161415915050919050565b600080611b7183611444565b90508073ffffffffffffffffffffffffffffffffffffffff168473ffffffffffffffffffffffffffffffffffffffff161480611be057508373ffffffffffffffffffffffffffffffffffffffff16611bc884610d0d565b73ffffffffffffffffffffffffffffffffffffffff16145b80611bf15750611bf08185611a5f565b5b91505092915050565b8173ffffffffffffffffffffffffffffffffffffffff16611c1a82611444565b73ffffffffffffffffffffffffffffffffffffffff16141515611c3c57600080fd5b600073ffffffffffffffffffffffffffffffffffffffff166002600083815260200190815260200160002060009054906101000a900473ffffffffffffffffffffffffffffffffffffffff1673ffffffffffffffffffffffffffffffffffffffff16141515611cf95760006002600083815260200190815260200160002060006101000a81548173ffffffffffffffffffffffffffffffffffffffff021916908373ffffffffffffffffffffffffffffffffffffffff1602179055505b5050565b6000806000611d0c858561222a565b60066000858152602001908152602001600020549250611d786001600560008873ffffffffffffffffffffffffffffffffffffffff1673ffffffffffffffffffffffffffffffffffffffff16815260200190815260200160002080549050611f9090919063ffffffff16565b9150600560008673ffffffffffffffffffffffffffffffffffffffff1673ffffffffffffffffffffffffffffffffffffffff16815260200190815260200160002082815481101515611dc657fe5b9060005260206000200154905080600560008773ffffffffffffffffffffffffffffffffffffffff1673ffffffffffffffffffffffffffffffffffffffff16815260200190815260200160002084815481101515611e2057fe5b9060005260206000200181905550600560008673ffffffffffffffffffffffffffffffffffffffff1673ffffffffffffffffffffffffffffffffffffffff168152602001908152602001600020805480919060019003611e80919061260d565b50600060066000868152602001908152602001600020819055508260066000838152602001908152602001600020819055505050505050565b6000611ec58383612359565b600560008473ffffffffffffffffffffffffffffffffffffffff1673ffffffffffffffffffffffffffffffffffffffff168152602001908152602001600020805490509050600560008473ffffffffffffffffffffffffffffffffffffffff1673ffffffffffffffffffffffffffffffffffffffff168152602001908152602001600020829080600181540180825580915050906001820390600052602060002001600090919290919091505550806006600084815260200190815260200160002081905550505050565b600080838311151515611fa257600080fd5b82840390508091505092915050565b611fbb82826124b3565b600780549050600860008381526020019081526020016000208190555060078190806001815401808255809150509060018203906000526020600020016000909192909190915055505050565b60008061202a8573ffffffffffffffffffffffffffffffffffffffff16612559565b15156120395760019150612221565b8473ffffffffffffffffffffffffffffffffffffffff1663150b7a02338887876040518563ffffffff167c0100000000000000000000000000000000000000000000000000000000028152600401808573ffffffffffffffffffffffffffffffffffffffff1673ffffffffffffffffffffffffffffffffffffffff1681526020018473ffffffffffffffffffffffffffffffffffffffff1673ffffffffffffffffffffffffffffffffffffffff16815260200183815260200180602001828103825283818151815260200191508051906020019080838360005b8381101561212e578082015181840152602081019050612113565b50505050905090810190601f16801561215b5780820380516001836020036101000a031916815260200191505b5095505050505050602060405180830381600087803b15801561217d57600080fd5b505af1158015612191573d6000803e3d6000fd5b505050506040513d60208110156121a757600080fd5b8101908080519060200190929190505050905063150b7a027c0100000000000000000000000000000000000000000000000000000000027bffffffffffffffffffffffffffffffffffffffffffffffffffffffff1916817bffffffffffffffffffffffffffffffffffffffffffffffffffffffff19161491505b50949350505050565b8173ffffffffffffffffffffffffffffffffffffffff1661224a82611444565b73ffffffffffffffffffffffffffffffffffffffff1614151561226c57600080fd5b6122bf6001600360008573ffffffffffffffffffffffffffffffffffffffff1673ffffffffffffffffffffffffffffffffffffffff16815260200190815260200160002054611f9090919063ffffffff16565b600360008473ffffffffffffffffffffffffffffffffffffffff1673ffffffffffffffffffffffffffffffffffffffff1681526020019081526020016000208190555060006001600083815260200190815260200160002060006101000a81548173ffffffffffffffffffffffffffffffffffffffff021916908373ffffffffffffffffffffffffffffffffffffffff1602179055505050565b600073ffffffffffffffffffffffffffffffffffffffff166001600083815260200190815260200160002060009054906101000a900473ffffffffffffffffffffffffffffffffffffffff1673ffffffffffffffffffffffffffffffffffffffff161415156123c757600080fd5b816001600083815260200190815260200160002060006101000a81548173ffffffffffffffffffffffffffffffffffffffff021916908373ffffffffffffffffffffffffffffffffffffffff16021790555061246c6001600360008573ffffffffffffffffffffffffffffffffffffffff1673ffffffffffffffffffffffffffffffffffffffff1681526020019081526020016000205461256c90919063ffffffff16565b600360008473ffffffffffffffffffffffffffffffffffffffff1673ffffffffffffffffffffffffffffffffffffffff168152602001908152602001600020819055505050565b600073ffffffffffffffffffffffffffffffffffffffff168273ffffffffffffffffffffffffffffffffffffffff16141515156124ef57600080fd5b6124f98282611eb9565b808273ffffffffffffffffffffffffffffffffffffffff16600073ffffffffffffffffffffffffffffffffffffffff167fddf252ad1be2c89b69c2b068fc378daa952ba7f163c4a11628f55a4df523b3ef60405160405180910390a45050565b600080823b905060008111915050919050565b600080828401905083811015151561258357600080fd5b8091505092915050565b828054600181600116156101000203166002900490600052602060002090601f016020900481019282601f106125ce57805160ff19168380011785556125fc565b828001600101855582156125fc579182015b828111156125fb5782518255916020019190600101906125e0565b5b5090506126099190612639565b5090565b815481835581811115612634578183600052602060002091820191016126339190612639565b5b505050565b61265b91905b8082111561265757600081600090555060010161263f565b5090565b905600a165627a7a72305820921a370d01ef5c12c52ba85026ed6e69e82274814ba6894013ce3d43c53f80f30029",
  "source": "pragma solidity ^0.4.24;\nimport \"openzeppelin-solidity/contracts/math/SafeMath.sol\";\nimport \"openzeppelin-solidity/contracts/token/ERC721/ERC721Full.sol\";\n\ncontract MPresto is ERC721Full {\n  using SafeMath for uint256;\n\n  struct Item {\n    string name;\n    uint256 quantity;\n  }\n\n  Item[] public items;\n\n  mapping(bytes32 => address) public nicknames;\n  mapping(address => bytes32) public ownerNickname;\n\n  constructor () ERC721Full(\"MPresto\", \"MPTO\") public {}\n\n  function createItem(string _name, uint256 _quantity) public {\n    uint256 id = items.push(Item(_name, _quantity)).sub(1);\n    _mint(msg.sender, id);\n    emit NewItem(id, _name, _quantity);\n  }\n\n  function getItem(uint256 _id) public view returns (string, uint256, address, bytes32) {\n    require(_id < items.length);\n    Item storage item = items[_id];\n    address owner = ownerOf(_id);\n    bytes32 nickname = ownerNickname[owner];\n    return (item.name, item.quantity, owner, nickname);\n  }\n\n  function getItemsByOwner(address _owner) public view returns (uint256[]) {\n    uint256 total = balanceOf(_owner);\n    uint256[] memory result = new uint256[](total);\n\n    for (uint256 i = 0; i < total; i++) {\n      result[i] = tokenOfOwnerByIndex(_owner, i);\n    }\n\n    return result;\n  }\n\n  function transfer(address _to, uint256 _id) public {\n    transferFrom(msg.sender, _to, _id);\n  }\n\n  function setNickname(bytes32 _nickname) public {\n    require(nicknames[_nickname] == 0x0);\n    bytes32 current = ownerNickname[msg.sender];\n    nicknames[_nickname] = msg.sender;\n    nicknames[current] = 0x0;\n    ownerNickname[msg.sender] = _nickname;\n    emit ChangeNickname(current, _nickname, msg.sender);\n  }\n\n  event NewItem(uint256 id, string name, uint256 quantity);\n  event ChangeNickname(bytes32 _from, bytes32 _to, address indexed _owner);\n}\n",
  "sourcePath": "/home/ocio/workspace/public/m-presto/m-presto-contracts/contracts/MPresto.sol",
  "compiler": {
    "name": "solc",
    "version": "0.4.24+commit.e67f0147.Emscripten.clang"
  },
  "schemaVersion": "2.0.0",
  "updatedAt": "2018-12-27T21:05:50.410Z"
}